{
    "address": "0xb92B8b2f46dDEEEfD70389830f89919ceef6867B",
    "abi": [
        {
            "inputs": [
                {
                    "internalType": "uint256",
                    "name": "",
                    "type": "uint256"
                }
            ],
            "name": "DonateContractArray",
            "outputs": [
                {
                    "internalType": "contract DonateContract",
                    "name": "",
                    "type": "address"
                }
            ],
            "stateMutability": "view",
            "type": "function"
        },
        {
            "inputs": [
                {
                    "internalType": "uint256",
                    "name": "_donating",
                    "type": "uint256"
                }
            ],
            "name": "createNewDonateContract",
            "outputs": [],
            "stateMutability": "nonpayable",
            "type": "function"
        },
        {
            "inputs": [
                {
                    "internalType": "uint256",
                    "name": "_donaterIndex",
                    "type": "uint256"
                },
                {
                    "internalType": "uint256",
                    "name": "_donating",
                    "type": "uint256"
                }
            ],
            "name": "dfSetter",
            "outputs": [],
            "stateMutability": "nonpayable",
            "type": "function"
        }
    ],
    "transactionHash": "0x5f664fbf280eab2312c2a369effd7939a24bf25c4f7d75af540a8f2d0b359a3c",
    "args": [],
    "numDeployments": 2,
    "solcInputHash": "c8e34455b934afb4402861fa0a6578af",
    "bytecode": "0x608060405234801561001057600080fd5b5061093c806100206000396000f3fe608060405234801561001057600080fd5b50600436106100415760003560e01c8063083d6ddf1461004657806336bb1c2314610076578063a4192db114610092575b600080fd5b610060600480360381019061005b9190610281565b6100ae565b60405161006d919061032d565b60405180910390f35b610090600480360381019061008b9190610348565b6100ed565b005b6100ac60048036038101906100a79190610281565b61019a565b005b600081815481106100be57600080fd5b906000526020600020016000915054906101000a900473ffffffffffffffffffffffffffffffffffffffff1681565b6000828154811061010157610100610388565b5b9060005260206000200160009054906101000a900473ffffffffffffffffffffffffffffffffffffffff1673ffffffffffffffffffffffffffffffffffffffff1663271f88b4826040518263ffffffff1660e01b815260040161016491906103c6565b600060405180830381600087803b15801561017e57600080fd5b505af1158015610192573d6000803e3d6000fd5b505050505050565b6000816040516101a990610239565b6101b391906103c6565b604051809103906000f0801580156101cf573d6000803e3d6000fd5b5090506000819080600181540180825580915050600190039060005260206000200160009091909190916101000a81548173ffffffffffffffffffffffffffffffffffffffff021916908373ffffffffffffffffffffffffffffffffffffffff1602179055505050565b610525806103e283390190565b600080fd5b6000819050919050565b61025e8161024b565b811461026957600080fd5b50565b60008135905061027b81610255565b92915050565b60006020828403121561029757610296610246565b5b60006102a58482850161026c565b91505092915050565b600073ffffffffffffffffffffffffffffffffffffffff82169050919050565b6000819050919050565b60006102f36102ee6102e9846102ae565b6102ce565b6102ae565b9050919050565b6000610305826102d8565b9050919050565b6000610317826102fa565b9050919050565b6103278161030c565b82525050565b6000602082019050610342600083018461031e565b92915050565b6000806040838503121561035f5761035e610246565b5b600061036d8582860161026c565b925050602061037e8582860161026c565b9150509250929050565b7f4e487b7100000000000000000000000000000000000000000000000000000000600052603260045260246000fd5b6103c08161024b565b82525050565b60006020820190506103db60008301846103b7565b9291505056fe608060405234801561001057600080fd5b506040516105253803806105258339818101604052810190610032919061007a565b80600181905550506100a7565b600080fd5b6000819050919050565b61005781610044565b811461006257600080fd5b50565b6000815190506100748161004e565b92915050565b6000602082840312156100905761008f61003f565b5b600061009e84828501610065565b91505092915050565b61046f806100b66000396000f3fe6080604052600436106100345760003560e01c8063271f88b414610039578063aa8c217c14610062578063f14faf6f1461008d575b600080fd5b34801561004557600080fd5b50610060600480360381019061005b9190610261565b6100a9565b005b34801561006e57600080fd5b506100776100b3565b604051610084919061029d565b60405180910390f35b6100a760048036038101906100a29190610261565b6100b9565b005b8060018190555050565b60015481565b60015434146100fd576040517f08c379a00000000000000000000000000000000000000000000000000000000081526004016100f490610315565b60405180910390fd5b8060008082825461010e9190610364565b92505081905550600154600054106101295761012861012c565b5b50565b61016a6040518060400160405280601081526020017f53746f726167652041434849455645440000000000000000000000000000000081525061016c565b565b610202816040516024016101809190610417565b6040516020818303038152906040527f41304fac000000000000000000000000000000000000000000000000000000007bffffffffffffffffffffffffffffffffffffffffffffffffffffffff19166020820180517bffffffffffffffffffffffffffffffffffffffffffffffffffffffff8381831617835250505050610205565b50565b60006a636f6e736f6c652e6c6f679050600080835160208501845afa505050565b600080fd5b6000819050919050565b61023e8161022b565b811461024957600080fd5b50565b60008135905061025b81610235565b92915050565b60006020828403121561027757610276610226565b5b60006102858482850161024c565b91505092915050565b6102978161022b565b82525050565b60006020820190506102b2600083018461028e565b92915050565b600082825260208201905092915050565b7f496e636f727265637420646f6e6174696f6e20616d6f756e7400000000000000600082015250565b60006102ff6019836102b8565b915061030a826102c9565b602082019050919050565b6000602082019050818103600083015261032e816102f2565b9050919050565b7f4e487b7100000000000000000000000000000000000000000000000000000000600052601160045260246000fd5b600061036f8261022b565b915061037a8361022b565b925082820190508082111561039257610391610335565b5b92915050565b600081519050919050565b60005b838110156103c15780820151818401526020810190506103a6565b60008484015250505050565b6000601f19601f8301169050919050565b60006103e982610398565b6103f381856102b8565b93506104038185602086016103a3565b61040c816103cd565b840191505092915050565b6000602082019050818103600083015261043181846103de565b90509291505056fea2646970667358221220ee82e7701abdcd163c3b92055176bca44e0cf09a58b64b942e26a6eb1fe6926864736f6c63430008110033a264697066735822122052ee6f30003be1784b6957e0aa238d859f9cb24d1232c7e50af47424b02fde1b64736f6c63430008110033",
    "devdoc": {
        "kind": "dev",
        "methods": {},
        "version": 1
    },
    "userdoc": {
        "kind": "user",
        "methods": {},
        "version": 1
    },
    "storageLayout": {
        "storage": [
            {
                "astId": 70,
                "contract": "contracts/DonateContractFactory.sol:DonateContractFactory",
                "label": "DonateContractArray",
                "offset": 0,
                "slot": "0",
                "type": "t_array(t_contract(DonateContract)63)dyn_storage"
            }
        ],
        "types": {
            "t_array(t_contract(DonateContract)63)dyn_storage": {
                "base": "t_contract(DonateContract)63",
                "encoding": "dynamic_array",
                "label": "contract DonateContract[]",
                "numberOfBytes": "32"
            },
            "t_contract(DonateContract)63": {
                "encoding": "inplace",
                "label": "contract DonateContract",
                "numberOfBytes": "20"
            }
        }
    }
}